:100000000C94E0000C9408010C9408010C94080175
:100010000C9408010C9408010C9408010C9408013C
:100020000C9408010C9408010C9408010C9408012C
:100030000C9408010C9408010C9408010C9408011C
:100040000C9430030C9408010C9408010C940801E2
:100050000C9408010C9408010C9408010C940801FC
:100060000C9408010C94080100407A10F35A00A087
:10007000724E18090010A5D4E80000E87648170071
:1000800000E40B54020000CA9A3B000000E1F505B1
:10009000000080969800000040420F000000A086FB
:1000A00001000000102700000000E803000000002D
:1000B0006400000000000A000000000001000000D1
:1000C00000002C76D888DC674F0823DFC1DFAE59EB
:1000D000E1B1B796E5E3E453C63AE651997696E87E
:1000E000E6C28426EB898C9B62ED407C6FFCEFBC02
:1000F0009C9F40F2BAA56FA5F490055A2AF75C932D
:100100006B6CF9676DC11BFCE0E40D47FEF520E662
:10011000B500D0ED902E0300943577050080841E45
:10012000080000204E0A000000C80C333333330FA0
:10013000986E12831141EF8D2114893BE65516CF3D
:10014000FEE6DB18D1844B381BF77C1D901DA4BB49
:10015000E424203284725E228100C9F124ECA1E5FE
:100160003D2700000000240027002A0000000000B6
:10017000250028002B000000000023002600290095
:10018000040404040404040402020202020203033D
:100190000303030301020408102040800102040845
:1001A00010200102040810200000000800020100D5
:1001B000000304070000000000000000FA0709081F
:1001C00011241FBECFEFD8E0DEBFCDBF21E0A4E2F7
:1001D000B1E001C01D92A834B207E1F711E0A0E040
:1001E000B1E0E2E4FDE102C005900D92A432B10756
:1001F000D9F710E0CFEDD0E004C02197FE010E94B6
:100200009C0CCE3DD107C9F70E947A030C94940E42
:100210000C940000833081F028F4813099F0823012
:10022000A9F008958730A9F08830C9F08430B1F47E
:10023000809180008F7D03C0809180008F778093B4
:100240008000089584B58F7784BD089584B58F7D2F
:10025000FBCF8091B0008F778093B000089580919C
:10026000B0008F7DF9CF1F93CF93DF93282F30E01D
:10027000F901E855FE4F8491F901EC56FE4FD491F7
:10028000F901E058FE4FC491CC23A9F0162F81113B
:100290000E940A01EC2FF0E0EE0FFF1FE459FE4F21
:1002A000A591B4918FB7F894EC91111108C0D09535
:1002B000DE23DC938FBFDF91CF911F910895DE2B5A
:1002C000F8CFCF93DF9390E0FC01EC56FE4F2491E2
:1002D00080589E4FFC0184918823D1F090E0880FD4
:1002E000991FFC01EE59FE4FA591B491FC01E45910
:1002F000FE4FC591D49161110EC09FB7F8948C91B7
:10030000E22FE0958E238C932881E223E8839FBF20
:10031000DF91CF9108958FB7F894EC91E22BEC9395
:100320008FBFF6CF3FB7F89480912A0190912B01AF
:10033000A0912C01B0912D0126B5A89B05C02F3F9F
:1003400019F00196A11DB11D3FBFBA2FA92F982FFB
:100350008827BC01CD01620F711D811D911D42E0F6
:10036000660F771F881F991F4A95D1F708958F92BE
:100370009F92AF92BF92CF92DF92EF92FF924B018A
:100380005C010E9492016B017C010E9492016C1938
:100390007D098E099F09683E734081059105A8F388
:1003A00021E0821A9108A108B10888EEC80E83E006
:1003B000D81EE11CF11C81149104A104B10429F799
:1003C000FF90EF90DF90CF90BF90AF909F908F9075
:1003D0000895EF92FF921F93CF93DF937C01162F26
:1003E00061E082E10E94330160E083E10E94330119
:1003F000D0E0C0E0B7018C2F0C2E02C07595679538
:100400000A94E2F761700E9433012196C830D10549
:1004100089F760E081E10E9433016AE070E080E0EA
:1004200090E00E94B70161E081E10E94330160E049
:1004300082E10E94330160E083E10E943301612F79
:1004400086E00E94330161E087E00E94330160E0B2
:1004500081E10E9433016AE070E080E090E00E9458
:10046000B70161E081E10E943301612F86E00E94C3
:10047000330160E087E00E94330160E081E10E9487
:1004800033016AE070E080E090E00E94B70161E033
:1004900081E1DF91CF911F91FF90EF900C94330198
:1004A0000F931F93CF93DF938C01D0E0C0E0D8016E
:1004B00014968D919C911597C817D90720F4ED914A
:1004C000FC91309701F510922401E4E2F1E0808183
:1004D00061E070E0082E000C990B0E94E90161E0D8
:1004E00070E080E090E00E94B7012196C830D1050D
:1004F000F1F661E070E080E090E0DF91CF911F9134
:100500000F910C94B701EC0FFD1FE1CFFC0180812E
:100510009181009711F00C943E0D0895EF92FF9297
:100520000F931F93CF93DF93EC017B018A018881A6
:100530009981009729F02A813B812417350788F497
:10054000B8016F5F7F4F0E94C70D009791F09983AC
:1005500088831B830A832C813D81232B11F4FC01AA
:1005600010821D830C83B701888199810E948D0EB2
:100570000CC088819981009711F00E943E0D19826C
:1005800018821D821C821B821A82CE01DF91CF91BC
:100590001F910F91FF90EF900895EF92FF920F93AC
:1005A0001F93CF93DF93CDB7DEB7A1970FB6F89423
:1005B000DEBF0FBECDBF7C01CB01BA01F7011182B6
:1005C000108213821282158214828E010F5F1F4FD8
:1005D00022E044E00E940D080097C9F0FC01019060
:1005E0000020E9F73197AF01481B590BBC01C70147
:1005F0000E948E02A1960FB6F894DEBF0FBECDBF4B
:10060000DF91CF911F910F91FF90EF900895F70127
:1006100080819181009711F00E943E0DF7011182B7
:1006200010821582148213821282E4CFFB01DC0156
:1006300011961C921E9213961C921E92129715965A
:100640001C921E9214978617970749F0608171815A
:100650006115710521F0448155810C948E02089535
:100660001F920F920FB60F9211242F933F938F93E7
:100670009F93AF93BF938091260190912701A09102
:100680002801B09129013091250123E0230F2D3756
:1006900058F50196A11DB11D2093250180932601D7
:1006A00090932701A0932801B093290180912A01FA
:1006B00090912B01A0912C01B0912D010196A11DCB
:1006C000B11D80932A0190932B01A0932C01B0932C
:1006D0002D01BF91AF919F918F913F912F910F90DD
:1006E0000FBE0F901F90189526E8230F0296A11DAC
:1006F000B11DD2CFCF93DF93CDB7DEB72C970FB616
:10070000F894DEBF0FBECDBF789484B5826084BDFF
:1007100084B5816084BD85B5826085BD85B5816005
:1007200085BD80916E00816080936E001092810083
:10073000809181008260809381008091810081603E
:1007400080938100809180008160809380008091FF
:10075000B10084608093B1008091B000816080938B
:10076000B00080917A00846080937A0080917A0052
:10077000826080937A0080917A00816080937A0011
:1007800080917A00806880937A001092C10061E0C5
:1007900080E00E94610161E081E00E94610161E00E
:1007A00082E00E94610161E083E00E94610161E0FA
:1007B00084E00E94610161E085E00E94610161E0E6
:1007C00086E00E94610161E087E00E94610161E0D2
:1007D00082E10E94610161E083E10E94610161E0C8
:1007E00080E10E94610161E081E10E94610100E31A
:1007F00010E08091420190914301892B09F09AC049
:1008000061E080E10E94330161E081E10E943301F7
:1008100061E082E10E94330161E083E10E943301E3
:1008200061E087E00E94330160E086E00E943301CE
:1008300060E085E00E94330160E084E00E943301C3
:1008400061E083E00E94330160E082E00E943301B6
:1008500060E081E00E94330160E080E00E943301AB
:1008600060E081E10E9433016AE070E080E090E0A6
:100870000E94B70161E081E10E94330170E060E015
:1008800088E390E00E94E9016EE170E080E090E092
:100890000E94B70170E060E08EE090E00E94E90104
:1008A0006EE170E080E090E00E94B70170E060E0EF
:1008B00081E090E00E94E9016EE170E080E090E06C
:1008C0000E94B70170E060E086E090E00E94E901DC
:1008D0006EE170E080E090E00E94B7016CE371E0AF
:1008E000CE0101960E941603CE0101960E9450028D
:1008F000CE0101960E94860268EE73E080E090E0EF
:100900000E94B70170E060E081E090E00E94E901A0
:100910006EE170E080E090E00E94B70170E060E07E
:100920008FE090E00E94E90181E090E09093430124
:100930008093420198E1892E91E0992E28E0A22E21
:1009400021E0B22E712C60E082E10E94330161E06F
:1009500083E10E94330161E0F40181914F010E9423
:10096000330160E081E10E94330161E070E080E0EA
:1009700090E00E94B70161E081E10E94330160E0F4
:10098000872D0E94330160E081E10E94330161E024
:1009900070E080E090E00E94B70161E081E10E9498
:1009A0003301F12CE12C60E084E00E94610160E001
:1009B00085E00E94610160E086E00E94610160E0E4
:1009C00087E00E94610160E080E10E943301F7014D
:1009D000E455FE4F8491F701E856FE4FD490F7019D
:1009E000EC57FE4FC490CC2009F497C081110E94AF
:1009F0000A01EC2DF0E0EE0FFF1FEA58FE4FA59123
:100A0000B491EC91DE2291E080E009F490E0C92EEF
:100A1000D82ED0923B01C0923A016BE070E080E0AA
:100A200090E00E94B70161E080E10E94330161E043
:100A300084E00E94610161E085E00E94610161E063
:100A400086E00E94610161E087E00E946101CD289B
:100A500009F03BC2F501EE0DFF1DC08096ED9C0D27
:100A600081E0923008F080E021E093ED9C0D93301E
:100A700008F020E0822B19F4FDE3CF1249C261E0B7
:100A800070E080E090E00E94B7018EE2C81248C09A
:100A900070E060E081E090E00E94E90170E060E0D9
:100AA00086E090E00E94E9011093010100930001AB
:100AB00010923601109237011092380110923901CC
:100AC00010923201109233011092340110923501CC
:100AD000109231011092300161E0872D0E943301A4
:100AE00060E081E10E94330161E070E080E090E02D
:100AF0000E94B70161E081E10E943301739494E0A8
:100B0000A90EB11CE4E07E121ECF80E090E0892B9C
:100B100009F46FCE0E9400006CCED12CC12C79CF8D
:100B20009DE3C912B3C161E070E08DE390E00E94E3
:100B3000E90180910001909101018B9709F059C062
:100B400080912F01882399F080913601909137018F
:100B5000A0913801B0913901B0588093360190933B
:100B60003701A0933801B093390110922F01809181
:100B70002E01882399F08091320190913301A09148
:100B80003401B0913501B058809332019093330114
:100B9000A0933401B093350110922E0120913201BF
:100BA000309133014091340150913501609136010B
:100BB0007091370180913801909139010E94BE0BEC
:100BC000AB01BC01CE0107960E94CD02BE01695F58
:100BD0007F4FCE0101960E941603CE0101960E941E
:100BE0005002CE0101960E948602CE0107960E9415
:100BF000860280910001909101018D9709F059C002
:100C000080912F01882399F08091360190913701CE
:100C1000A0913801B0913901B0588093360190937A
:100C20003701A0933801B093390110922F018091C0
:100C30002E01882399F08091320190913301A09187
:100C40003401B0913501B058809332019093330153
:100C5000A0933401B093350110922E0120913201FE
:100C6000309133014091340150913501609136014A
:100C70007091370180913801909139010E94BD0B2C
:100C8000AB01BC01CE0107960E94CD02BE01695F97
:100C90007F4FCE0101960E941603CE0101960E945D
:100CA0005002CE0101960E948602CE0107960E9454
:100CB000860280910001909101018A9709F059C044
:100CC00080912F01882399F080913601909137010E
:100CD000A0913801B0913901B058809336019093BA
:100CE0003701A0933801B093390110922F01809100
:100CF0002E01882399F08091320190913301A091C7
:100D00003401B0913501B058809332019093330192
:100D1000A0933401B093350110922E01209132013D
:100D20003091330140913401509135016091360189
:100D30007091370180913801909139010E94C80A61
:100D4000AB01BC01CE0107960E94CD02BE01695FD6
:100D50007F4FCE0101960E941603CE0101960E949C
:100D60005002CE0101960E948602CE0107960E9493
:100D7000860280910001909101018F97E9F4C09063
:100D80003201D0903301E0903401F090350120E041
:100D900030E0A901C701B6010E94620A811121C099
:100DA00061E070E085E490E00E94E90161E070E0BC
:100DB00080E090E00E94B7011093010100930001D0
:100DC00010923601109237011092380110923901B9
:100DD00010923201109233011092340110923501B9
:100DE0007BCE80912F01882399F0809136019091DC
:100DF0003701A0913801B0913901B0588093360184
:100E000090933701A0933801B093390110922F01CC
:100E100080912E01882371F0F7FAF094F7F8F0949E
:100E2000C0923201D0923301E0923401F092350148
:100E300010922E0120913201309133014091340102
:100E400050913501609136017091370180913801E0
:100E5000909139010E942A0CAB01BC01CE0107968A
:100E60000E94CD02BE01695F7F4FCE0101960E94B4
:100E70001603CE0101960E945002CE0101960E94F7
:100E80008602CE0107960E94860296CFEDE2CE1230
:100E900035C020E030E0A901609136017091370142
:100EA00080913801909139010E94620A811116C027
:100EB00061E070E08DE290E00E94E9011093010191
:100EC0000093000181E080932F01FFEFEF1AFF0AEA
:100ED00084E0E816F10409F066CDFECD8091300182
:100EE000909131010196909331018093300161E03E
:100EF00070E08DE290E00E94E901E7CF8C2DCC0CF0
:100F0000990B909301018093000161E070E0F3CFB1
:100F100061E070E08C2D0C2C000C990B0E94E90113
:100F200062E070E080E090E00E94B70180910001F3
:100F3000909101010C2C000CDD08EE08FF0820E068
:100F400030E040E251E4C09729F56091360170919C
:100F5000370180913801909139010E94C80A1B0124
:100F60002C01C701B6010E94690A9B01AC01C201B4
:100F7000B1010E94BE0B20E030E040E452E40E9448
:100F8000BD0B6093360170933701809338019093C5
:100F90003901A2CD60913201709133018091340109
:100FA000909135010E94C80A1B012C01C701B601AE
:100FB0000E94690A9B01AC01C201B1010E94BE0BF3
:100FC00020E030E040E452E40E94BD0B209130016B
:100FD0003091310160933201709333018093340179
:100FE000909335012130310509F076CD81E0809371
:100FF0002E0172CDECE3F1E0118210821382128295
:101000001582148246E050E06CE171E0CF010C944F
:101010008E028CE391E00C948602EF920F931F9363
:10102000CF93DF93E80134E047FD34E1042E000C58
:10103000550B57FF03C0519541955109E32E022FDF
:10104000242FAE010E942B08CE01DF91CF911F917A
:101050000F91EF900895A9E0B0E0E1E3F8E00C947F
:101060008C0B6A01F22EB02E102FFBE3AF2EA016D0
:1010700008F41BE31F5F012F27E0AE014F5F5F4FB6
:101080000E948A09BC018981982F9970913009F4D6
:101090003FC09BE2E1FC04C09E2D9170E0FC3AC091
:1010A0005E2D5071E82FE87083FF46C084E09111F7
:1010B00001C083E0EF2DE81B8F1508F0E0E0D601BA
:1010C0008E2F20E2552351F1992329F0D6019C93CC
:1010D000C60101966C0196012D5F3F4FE2FE24C0D0
:1010E0008EE4D6018C9391E411969C9311971296FD
:1010F0008C93D9018E2F90E281111BC0E20FF32F48
:10110000F11D10828EEF9FEF2996ECE00C94A80B56
:101110009DE2C6CF90E2C4CF2D9381508111FCCFC8
:10112000CE0ED11CE0E0D0CF8EE6D6018C9391E6B6
:10113000DBCF9D938150E0CF482F447082FF3DC0AC
:1011400084E0911101C083E08F1510F4EF2DE81BAE
:10115000D6018E2F20E2552309F1992329F0D601DB
:101160009C93C60101966C0196012D5F3F4FE2FEF4
:101170001BC089E4D6018C938EE411968C93119751
:1011800086E412968C93D9018E2F90E2882309F47D
:10119000B5CF9D938150FACF2D9381508111FCCF13
:1011A000CE0ED11CE0E0D9CF89E6D6018C938EE635
:1011B00011968C93119786E6E4CF9B0177FF02C0CE
:1011C00030E020E0A1E0B0E0911102C0B0E0A0E08A
:1011D000F9013196AE0FBF1F8B2C912CBB2009F467
:1011E00061C05401EFEFAE1ABE0AAA0DBB1DFA167C
:1011F0001B0619F014F04F2D4A1B511188C0E3FC57
:1012000059C07601A42FB0E2A1114FC0C40ED11C69
:10121000992309F45BC040E0D6011196F601908352
:101220006D01552309F448C0012F060F9A81582FEC
:10123000507184FF03C0913309F4015010160CF073
:1012400047C0093008F008E0EEE2FE2E5B01A01A6C
:10125000B10885019194819491082F3F320729F4B8
:10126000D601FC92F60131966F016217730794F173
:10127000021713077CF5DB01A21BB30BAA24A3946E
:10128000B12CAC0EBD1EAA0DBB1D11968C91215028
:101290003109D601119628153905F4F0F60180833D
:1012A0006D01DBCFB12CA12CA0CFF701B1937F0151
:1012B000A150AACF9111B0CFD601942F50E302C014
:1012C0005D9391509111FCCFC40ED11C40E0ACCF86
:1012D00001E0BACF80E3DBCF6217730731F49633B6
:1012E00088F4953311F4552369F0F6018083FD01EC
:1012F000842F90E2811108C0A40FB11D1C9290E0D0
:1013000080E002CF81E3F1CF91938150F3CF91112F
:1013100083CF8ACF283008F027E03327DA01990FEE
:10132000311D87FD916000966105710539F43260C9
:101330002E5F3D9330E32A95E1F708959F3F30F00B
:1013400080387105610509F03C5F3C5F3D93913049
:1013500008F08068911DDF93CF931F930F93FF9246
:10136000EF92192F987F9695E92F96959695E90F0C
:10137000FF27EE53FF4F99273327EE24FF24A701C1
:10138000E70105900894079428F4360FE71EF81E2D
:10139000491F511D660F771F881F991F0694A1F7DB
:1013A0000590079428F4E70EF81E491F561FC11D2B
:1013B000770F881F991F661F0694A1F70590079461
:1013C00028F4F80E491F561FC71FD11D880F991FFB
:1013D000661F771F0694A1F70590079420F4490F24
:1013E000561FC71FD81F990F661F771F881F0694A7
:1013F000A9F784911095177041F0D695C795579528
:101400004795F794E7941A95C1F7E8E6F0E06894F9
:101410001590159135916591959105907FE27395A1
:10142000E118F10A430B560BC90BD009C0F7E10CC8
:10143000F11E431F561FC91FD01D7EF4703311F4D7
:101440008A95E6CFE894015030F0080F0AF400279F
:10145000021708F4202F2395022F7A3328F079E31E
:101460007D932A95E9F710C07D932A9589F6069415
:1014700097956795379517951794E118F10A430BDF
:10148000560BC90BD00998F023957E9173957A334A
:1014900008F070E37C932013B8F77E9170617D9320
:1014A00030F0839571E37D9370E32A95E1F7112481
:1014B000EF90FF900F911F91CF91DF91992787FDBA
:1014C000909508950E94A40A08F481E00895E89494
:1014D00009C097FB3EF490958095709561957F4F7C
:1014E0008F4F9F4F9923A9F0F92F96E9BB2793952A
:1014F000F695879577956795B795F111F8CFFAF43A
:10150000BB0F11F460FF1BC06F5F7F4F8F4F9F4F6A
:1015100016C0882311F096E911C0772321F09EE8C8
:10152000872F762F05C0662371F096E8862F70E02E
:1015300060E02AF09A95660F771F881FDAF7880F08
:101540009695879597F90895990F0008550FAA0B5E
:10155000E0E8FEEF16161706E807F907C0F01216C6
:101560001306E407F50798F0621B730B840B950BC9
:1015700039F40A2661F0232B242B252B21F408951E
:101580000A2609F4A140A6958FEF811D811D0895BB
:101590000E94DB0A0C944C0B0E943E0B38F00E9418
:1015A000450B20F0952311F00C94350B0C943B0B5C
:1015B00011240C94800B0E945D0B70F3959FC1F376
:1015C000950F50E0551F629FF001729FBB27F00DF1
:1015D000B11D639FAA27F00DB11DAA1F649F662746
:1015E000B00DA11D661F829F2227B00DA11D621F95
:1015F000739FB00DA11D621F839FA00D611D221F4F
:10160000749F3327A00D611D231F849F600D211D32
:10161000822F762F6A2F11249F5750409AF0F1F0B5
:1016200088234AF0EE0FFF1FBB1F661F771F881F1E
:1016300091505040A9F79E3F510580F00C94350B16
:101640000C94800B5F3FE4F3983ED4F38695779536
:101650006795B795F795E7959F5FC1F7FE2B880FC4
:10166000911D9695879597F9089597F99F6780E85A
:1016700070E060E008959FEF80EC089500240A94E4
:101680001616170618060906089500240A9412165D
:101690001306140605060895092E0394000C11F490
:1016A000882352F0BB0F40F4BF2B11F460FF04C03D
:1016B0006F5F7F4F8F4F9F4F089557FD9058440F96
:1016C000551F59F05F3F71F04795880F97FB991FA1
:1016D00061F09F3F79F0879508951216130614065E
:1016E000551FF2CF4695F1DF08C0161617061806EB
:1016F000991FF1CF86957105610508940895E894C6
:10170000BB2766277727CB0197F908952F923F9241
:101710004F925F926F927F928F929F92AF92BF9201
:10172000CF92DF92EF92FF920F931F93CF93DF93AD
:10173000CDB7DEB7CA1BDB0B0FB6F894DEBF0FBE0A
:10174000CDBF09942A88398848885F846E847D8457
:101750008C849B84AA84B984C884DF80EE80FD8059
:101760000C811B81AA81B981CE0FD11D0FB6F894CF
:10177000DEBF0FBECDBFED0108955058BB27AA278D
:101780000E94D50B0C944C0B0E943E0B38F00E942B
:10179000450B20F039F49F3F19F426F40C943B0BD1
:1017A0000EF4E095E7FB0C94350BE92F0E945D0BDE
:1017B00058F3BA17620773078407950720F079F486
:1017C000A6F50C947F0B0EF4E0950B2EBA2FA02DEE
:1017D0000B01B90190010C01CA01A0011124FF27DE
:1017E000591B99F0593F50F4503E68F11A16F040D9
:1017F000A22F232F342F4427585FF3CF46953795D8
:101800002795A795F0405395C9F77EF41F16BA0B9C
:10181000620B730B840BBAF09150A1F0FF0FBB1F4A
:10182000661F771F881FC2F70EC0BA0F621F731F93
:10183000841F48F4879577956795B795F7959E3FF0
:1018400008F0B0CF9395880F08F09927EE0F979581
:10185000879508950E943E0C0C944C0B0E94450BFA
:1018600058F00E943E0B40F029F45F3F29F00C94A1
:10187000350B51110C94800B0C943B0B0E945D0BAB
:1018800068F39923B1F3552391F3951B550BBB27AF
:10189000AA2762177307840738F09F5F5F4F220FF4
:1018A000331F441FAA1FA9F335D00E2E3AF0E0E8EB
:1018B00032D091505040E695001CCAF72BD0FE2F35
:1018C00029D0660F771F881FBB1F261737074807C9
:1018D000AB07B0E809F0BB0B802DBF01FF27935881
:1018E0005F4F3AF09E3F510578F00C94350B0C9405
:1018F000800B5F3FE4F3983ED4F386957795679528
:10190000B795F7959F5FC9F7880F911D96958795B5
:1019100097F90895E1E0660F771F881FBB1F6217D4
:1019200073078407BA0720F0621B730B840BBA0B92
:10193000EE1F88F7E0950895EE0FFF1F0590F491D4
:10194000E02D09940F931F93CF93DF93823091057D
:1019500010F482E090E0E0914601F091470130E020
:1019600020E0B0E0A0E0309799F42115310509F4AA
:101970004AC0281B390B24303105D8F58A819B8158
:101980006115710589F1FB0193838283FE0111C00A
:10199000408151810281138148175907E0F04817AF
:1019A000590799F4109761F012960C9312971396B9
:1019B0001C933296CF01DF91CF911F910F91089523
:1019C0000093460110934701F4CF2115310551F0E2
:1019D0004217530738F0A901DB019A01BD01DF016D
:1019E000F801C1CFEF01F9CF9093470180934601F1
:1019F000CDCFFE01E20FF31F819391932250310965
:101A000039832883D7CF2091440130914501232B7E
:101A100041F4209104013091050130934501209358
:101A2000440120910201309103012115310541F457
:101A30002DB73EB74091060150910701241B350B8D
:101A4000E0914401F0914501E217F307A0F42E1B49
:101A50003F0B2817390778F0AC014E5F5F4F241712
:101A6000350748F04E0F5F1F5093450140934401E6
:101A7000819391939FCFF0E0E0E09CCFCF93DF93F1
:101A80000097E9F0FC01329713821282A09146017F
:101A9000B0914701ED0130E020E01097A1F42081E2
:101AA0003181820F931F2091440130914501281705
:101AB000390709F061C0F0934501E0934401DF91DB
:101AC000CF910895EA01CE17DF07E8F54A815B81DF
:101AD0009E0141155105B1F7E901FB83EA83499164
:101AE0005991C40FD51FEC17FD0761F480819181D6
:101AF0000296840F951FE9019983888382819381DF
:101B00009B838A83F0E0E0E012968D919C9113977D
:101B10000097B9F52D913C911197CD010296820F56
:101B2000931F20914401309145012817390739F658
:101B3000309751F51092470110924601B09345013C
:101B4000A0934401BCCFD383C28340815181840FD1
:101B5000951FC817D90761F44E5F5F4F888199813F
:101B6000480F591F518340838A819B8193838283CD
:101B70002115310509F0B0CFF0934701E0934601FC
:101B80009ECFFD01DC01C0CF13821282D7CFB0E01F
:101B9000A0E0EDECFDE00C94880B8C01009751F473
:101BA000CB010E94A20C8C01C801CDB7DEB7E0E1E9
:101BB0000C94A40BFC01E60FF71F9C012250310985
:101BC000E217F30708F49DC0D901CD91DC9111977C
:101BD000C617D70798F0C530D10530F3CE0104976A
:101BE0008617970708F3C61BD70B2297C193D1938B
:101BF0006D937C93CF010E943E0DD6CF5B01AC1A52
:101C0000BD0A4C018C0E9D1EA0914601B09147016A
:101C1000512C412CF12CE12C109731F5809144018D
:101C2000909145018815990509F05CC04616570644
:101C300008F058C08091020190910301009741F48F
:101C40008DB79EB74091060150910701841B950BFB
:101C5000E817F90708F055C0F0934501E0934401F7
:101C6000F90171836083A0CF8D919C911197129699
:101C70006C90129713967C901397A815B90559F597
:101C80006C0142E0C40ED11CCA14DB0420F1AC018B
:101C90004A195B09DA011296159780F06282738205
:101CA00051834083D9016D937C93E114F10471F069
:101CB000D7011396FC93EE93129776CF22968C0F52
:101CC0009D1FF90191838083F301EFCFF0934701CA
:101CD000E093460169CF4816590608F42C017D01AE
:101CE000D3019ACFCB010E94A20C7C01009749F04E
:101CF000AE01B8010E94840EC8010E943E0D87010A
:101D000053CF10E000E050CFFB01DC0102C0019096
:101D10000D9241505040D8F70895FB01DC0101902D
:101D20000D920020E1F7089510E0CFEDD0E004C05F
:101D3000FE010E949C0C2196C03ED107C9F7F89481
:021D4000FFCFD3
:101D420030000000480180003738392F3435362AF8
:101D52003132332D2E303D2B0001020348656C6C6D
:041D62006F210000ED
:00000001FF
